{
  "transactions": [
    {
      "hash": "0x25a55da1f49f67adac1359c61fbd5e6309ec5218e2313879a58e92e1cb8ecb6e",
      "transactionType": "CREATE",
      "contractName": "DemoERC721",
      "contractAddress": "0x4efebb735eb06419d3890382737455e23aab4df5",
      "function": null,
      "arguments": null,
      "transaction": {
        "from": "0xff9a176577fb42b6bc9c19fd05a241e8fcd0ca14",
        "gas": "0x2a4ed",
        "value": "0x0",
        "input": "0x608060405234801561000f575f80fd5b506101728061001d5f395ff3fe608060405234801561000f575f80fd5b506004361061003f575f3560e01c8063025e7c27146100435780636352211e1461008757806394bf804d146100af575b5f80fd5b61006b6100513660046100ec565b5f602081905290815260409020546001600160a01b031681565b6040516001600160a01b03909116815260200160405180910390f35b61006b6100953660046100ec565b5f908152602081905260409020546001600160a01b031690565b6100ea6100bd366004610103565b5f9182526020829052604090912080546001600160a01b0319166001600160a01b03909216919091179055565b005b5f602082840312156100fc575f80fd5b5035919050565b5f8060408385031215610114575f80fd5b8235915060208301356001600160a01b0381168114610131575f80fd5b80915050925092905056fea26469706673582212205ce31b7d31984b4b195b8439c3d0875c5b6834e464bf6a6206eb1d97abda635f64736f6c63430008180033",
        "nonce": "0x1c",
        "chainId": "0xaa36a7"
      },
      "additionalContracts": [],
      "isFixedGasLimit": false
    },
    {
      "hash": "0x044179aac5b5db35eaa1dbdb081692fe3ccd5e0aa57c984c5b669a02838cf618",
      "transactionType": "CALL",
      "contractName": "DemoERC721",
      "contractAddress": "0x4efebb735eb06419d3890382737455e23aab4df5",
      "function": "mint(uint256,address)",
      "arguments": [
        "43453374336946098645800348935541294719792525957232582197483812738490517843276",
        "0xFf9a176577Fb42b6bc9c19fd05a241e8fCd0ca14"
      ],
      "transaction": {
        "from": "0xff9a176577fb42b6bc9c19fd05a241e8fcd0ca14",
        "to": "0x4efebb735eb06419d3890382737455e23aab4df5",
        "gas": "0xfe14",
        "value": "0x0",
        "input": "0x94bf804d6011bd019654fb091d6cd1499d3b0092e1fe4f7c9ab7c2edeef3123487666d4c000000000000000000000000ff9a176577fb42b6bc9c19fd05a241e8fcd0ca14",
        "nonce": "0x1d",
        "chainId": "0xaa36a7"
      },
      "additionalContracts": [],
      "isFixedGasLimit": false
    }
  ],
  "receipts": [
    {
      "status": "0x1",
      "cumulativeGasUsed": "0x121ddf7",
      "logs": [],
      "logsBloom": "0x00000000000000000000000000000000000000000000000000000000000000000000000000000000000000000000000000000000000000000000000000000000000000000000000000000000000000000000000000000000000000000000000000000000000000000000000000000000000000000000000000000000000000000000000000000000000000000000000000000000000000000000000000000000000000000000000000000000000000000000000000000000000000000000000000000000000000000000000000000000000000000000000000000000000000000000000000000000000000000000000000000000000000000000000000000000",
      "type": "0x2",
      "transactionHash": "0x25a55da1f49f67adac1359c61fbd5e6309ec5218e2313879a58e92e1cb8ecb6e",
      "transactionIndex": "0xc9",
      "blockHash": "0x5f17e7b494d2582888762343bcced6a712e0319f2b5423af3b0000d1cdf03fd2",
      "blockNumber": "0xa9c208",
      "gasUsed": "0x208b7",
      "effectiveGasPrice": "0x420be46b",
      "from": "0xff9a176577fb42b6bc9c19fd05a241e8fcd0ca14",
      "to": null,
      "contractAddress": "0x4efebb735eb06419d3890382737455e23aab4df5"
    },
    {
      "status": "0x1",
      "cumulativeGasUsed": "0x1228bb2",
      "logs": [],
      "logsBloom": "0x00000000000000000000000000000000000000000000000000000000000000000000000000000000000000000000000000000000000000000000000000000000000000000000000000000000000000000000000000000000000000000000000000000000000000000000000000000000000000000000000000000000000000000000000000000000000000000000000000000000000000000000000000000000000000000000000000000000000000000000000000000000000000000000000000000000000000000000000000000000000000000000000000000000000000000000000000000000000000000000000000000000000000000000000000000000",
      "type": "0x2",
      "transactionHash": "0x044179aac5b5db35eaa1dbdb081692fe3ccd5e0aa57c984c5b669a02838cf618",
      "transactionIndex": "0xca",
      "blockHash": "0x5f17e7b494d2582888762343bcced6a712e0319f2b5423af3b0000d1cdf03fd2",
      "blockNumber": "0xa9c208",
      "gasUsed": "0xadbb",
      "effectiveGasPrice": "0x420be46b",
      "from": "0xff9a176577fb42b6bc9c19fd05a241e8fcd0ca14",
      "to": "0x4efebb735eb06419d3890382737455e23aab4df5",
      "contractAddress": null
    }
  ],
  "libraries": [],
  "pending": [],
  "returns": {
    "asset": {
      "internal_type": "address",
      "value": "0x4EFeBb735eB06419D3890382737455e23AaB4DF5"
    }
  },
  "timestamp": 1782247560419,
  "chain": 11155111,
  "commit": "1df54f5"
}